:100000000C9434000C943E000C943E000C943E0082
:100010000C943E000C943E000C943E000C943E0068
:100020000C943E000C943E000C943E000C943E0058
:100030000C943E000C943E000C943E000C943E0048
:100040000C943E000C943E000C943E000C943E0038
:100050000C943E000C943E000C943E000C943E0028
:100060000C943E000C943E0011241FBECFEFD8E04C
:10007000DEBFCDBF0E9440000C9459000C940000DC
:1000800080EF84B98CE08AB931E024E00BC086951A
:10009000869583278170880F880F880F2BB99BB1B5
:1000A000892B8BB983B183B183B11B99F0CF88E0E1
:0600B000F5CFF894FFCF2C
:00000001FF
